:020000040000FA
:0600000011EF02F01200F6
:020006000000F8
:08000800D9CFE6FFE1CFD9FFDB
:10001000240EE126480EF36E080EF3CFDBFF6F0EC1
:10002000F36E090EF3CFDBFF4C0EF36E0A0EF3CF27
:10003000DBFF610EF36E0B0EF3CFDBFF0D0EF36EE5
:100040000C0EF3CFDBFF0D0EDB6A430EF36E0E0ECC
:10005000F3CFDBFF680EF36E0F0EF3CFDBFF610E05
:10006000F36E100EF3CFDBFF6F0EF36E110EF3CFB6
:10007000DBFF0D0EF36E120EF3CFDBFF130EDB6A08
:10008000550EF36E1C0EF3CFDBFF730EF36E1D0ED9
:10009000F3CFDBFF750EF36E1E0EF3CFDBFF610EA9
:1000A000F36E1F0EF3CFDBFF720EF36E200EF3CF55
:1000B000DBFF690EF36E210EF3CFDBFF6F0EF36EE5
:1000C000220EF3CFDBFF230EDB6AB3D8B6D8A49A97
:1000D0009E9AD0D8DBD80D0EF36E160EF3CFDBFF51
:1000E000310EF36E170EF3CFDBFF320EF36E180EE8
:1000F000F3CFDBFF200EF36E190EF3CFDBFF3A0ECA
:10010000F36E1A0EF3CFDBFF030EDB6A828082A050
:1001100011D09EAA06D0140EAECFDBFF8A78DB503A
:10012000736EA4AA06D0150E74CFDBFF8A78DB505D
:10013000AD6EEDD7010EE66EEAEC01F0E55282A05D
:10014000FED78A8A8A88400EE66EEAEC01F0E55214
:10015000400EE66EEAEC01F0E552400EE66EEAEC87
:1001600001F0E552400EE66EEAEC01F0E552400E79
:10017000E66EEAEC01F0E552400EE66EEAEC01F0C4
:10018000E552400EE66EEAEC01F0E552400EE66EF6
:10019000EAEC01F0E552400EE66EEAEC01F0E552C1
:1001A000400EE66EEAEC01F0E552400EE66EEAEC37
:1001B00001F0E552400EE66EEAEC01F0E552400E29
:1001C000E66EEAEC01F0E552400EE66EEAEC01F074
:1001D000E552400EE66EEAEC01F0E552400EE66EA6
:1001E000EAEC01F0E552400EE66EEAEC01F0E55271
:1001F000400EE66EEAEC01F0E552400EE66EEAECE7
:1002000001F0E552400EE66EEAEC01F0E552400ED8
:10021000E66EEAEC01F0E5528A9A8A9878D7240EC5
:10022000E15C02E2E16AE552E16EE552E7CFD9FF17
:100230001200D38AD38CD3881200C00E936E8A6AC0
:100240000F017E0E3A6F810E946E8B6A1200D9CF29
:10025000E6FFE1CFD9FFE65282B0FED7010EE66E8F
:10026000EAEC01F0E55282A0FED7E552E552E7CF75
:10027000D9FF1200010EB06EA00EAF6EF29E260ED8
:10028000AC6E900EAB6E080EB86E1200010E766E5C
:10029000A00E756EF29E260E726E900E716E080E96
:1002A000706E1200728AA488420E736E8A78400EB5
:1002B000E66EEAEC01F0E552400EE66EEAEC01F083
:1002C000E552400EE66EEAEC01F0E552750E736EF3
:1002D0008A78400EE66EEAEC01F0E552400EE66EDA
:1002E000EAEC01F0E552400EE66EEAEC01F0E55270
:1002F0001200D9CFE6FFE1CFD9FFE652DF6A020E46
:10030000DF5C02E2DF2AFBD7E552E552E7CFD9FFF7
:100310001200D9CFE6FFE1CFD9FFE652A4AA06D05A
:100320007450DF6E8A78DF50736EE3DFE552E5527A
:06033000E7CFD9FF120027
:0A033600060EF66E000EF76E000EC4
:10034000F86E0F010900F550056F0900F550066FB2
:1003500003E1056701D03DD00900F550006F0900A9
:10036000F550016F0900F550026F09000900F550C2
:10037000E96E0900F550EA6E090009000900F55020
:10038000036F0900F550046F09000900F6CF07FF5D
:10039000F7CF08FFF8CF09FF00CFF6FF01CFF7FF37
:1003A00002CFF8FF0F01035302E1045307E00900F5
:1003B000F550EE6E0307F8E20407F9D707CFF6FF12
:1003C00008CFF7FF09CFF8FF0F010507000E065B06
:0403D000BFD7120081
:0C03D400FF0EE350036EEF0E01D0F30E9D
:1003E000E76EE72EF1EF01F00C0E026EE76AE72EE2
:1003F000F7EF01F0022EF6EF01F0032EEFEF01F020
:020400001200E8
:0E040200380EF36E00EE00F00F0E01D812005F
:10041000EA6002D0EE6AFCD7F350E9601200EE6A9F
:02042000FCD707
:0E0422001EEE00F02EEE00F0F86A019C9BEC3E
:0E04300001F01FEC02F004EC00F0FBD712000C
:02043E001200AA
:00000001FF
