:020000040000FA
:06000000DFEF05F0120025
:0A0006000100F80B0000000F0000DD
:0400100014000000D8
:0C001400A49E6B80A4AEFED7A49E120038
:10002000A49E6B84A4AEFED7A49E1200D9CFE6FF97
:10003000E1CFD9FFA49EFE0EDB506F6EA4AEFED7BB
:10004000A49EE552E7CFD9FF1200A49E6B82A4AE16
:10005000FED7A49E1200D9CFE6FFE1CFD9FFE6522A
:10006000DF6AA49E6B86A4AEFED7A49E6F50DF6E9F
:10007000DF5000D0E552E552E7CFD9FF1200A49E31
:100080006B9A6B88A4AEFED7A49E1200A49E6B8AC6
:100090006B88A4AEFED7A49E12009E96C5809EA635
:1000A000FED79E9612009E96C5849EA6FED79E966B
:1000B0001200D9CFE6FFE1CFD9FF9E96FE0EDB50AE
:1000C000C96E9EA6FED79E96E552E7CFD9FF1200D5
:1000D0009E96C5829EA6FED79E961200D9CFE6FFB9
:1000E000E1CFD9FFE652DF6A9E96C5869EA6FED76F
:1000F0009E96C950DF6EDF5000D0E552E552E7CF43
:10010000D9FF12009E96C59AC5889EA6FED79E96D8
:1001100012009E96C58AC5889EA6FED79E9612009E
:10012000D9CFE6FFE1CFD9FFE65282B0FED7010E6C
:10013000E66EA2EC05F0E55282A0FED7E552E5524C
:10014000E7CFD9FF1200D9CFE6FFE1CFD9FFE652C2
:10015000DF6A0A0EDF5C07E2140EE66EA2EC05F021
:10016000E552DF2AF6D7E552E552E7CFD9FF120074
:10017000D9CFE6FFE1CFD9FFE652DF6ADF6A0A0E88
:10018000DF5C06E28A98DFDF8A88DDDFDF2AF7D7C7
:10019000E552E552E7CFD9FF1200D9CFE6FFE1CF14
:1001A000D9FFE652DF6A0A0EDF5C07E2140EE66E44
:1001B000A2EC05F0E552DF2AF6D7E552E552E7CF8B
:1001C000D9FF1200D38AD38CD3881200F29EC70EB7
:1001D000936E8A6A0F01396BD80E946E3A6B8B6AF4
:1001E0001200766A220E756EF29E260E726E900EC8
:1001F000716E080E706EB06A220EAF6E260EAC6E77
:10020000900EAB6E080EB86EA49A9E9A1200800EE5
:100210006D6E280E6C6E6B6A696A270E6E6E800EAC
:10022000C76E280EC66EC56ACB6A270EC86E12004E
:10023000D9CFE6FFE1CFD9FF020EE1269EAA05D075
:10024000AE50DF6E8A78DF50736EA4AA06D0010E1E
:1002500074CFDBFF8A78DB50AD6E020EE15C02E208
:10026000E16AE552E16EE552E7CFD9FF1200D9CF3E
:10027000E6FFE1CFD9FFFE0EDB500F01146F156BC7
:1002800014CF15FF146BFD0EDB501411146FD890B2
:1002900015331433D89015331433D60E146E240E40
:1002A000156E300E166E3C0E176E14CF06F015CF7D
:1002B00007F085EC03F005C018F006C019F007C080
:1002C0001AF008C01BF018C00AF019C00BF01AC0D1
:1002D0000CF01BC00DF014C005F015C006F016C0E0
:1002E00007F017C008F09AEC03F005C018FF06C02D
:1002F00019FF07C01AFF08C01BFF660E0A6E0B6EBF
:100300003B0E0C6E420E0D6E18CF05F019CF06F0A5
:100310001ACF07F01BCF08F007EC04F005C018FF58
:1003200006C019FF07C01AFF08C01BFF0A6A0B6A44
:10033000C80E0C6E420E0D6E18CF05F019CF06F0E8
:100340001ACF07F01BCF08F09AEC03F09EEC04F0F4
:1003500006C01CFF07C01DFFE80E146E030E156ECD
:100360001CCF06F01DCF07F014C00BF015C00CF029
:10037000B9EC05F006C020FF1CCF1EFF1DCF1FFFEC
:10038000E80E0B6E030E0C6E1ECF06F01FCF07F0AB
:10039000B9EC05F002C01EFF03C01FFF640E146E0F
:1003A000156A1ECF06F01FCF07F014C00BF015C062
:1003B0000CF0B9EC05F006C021FF640E0B6E0C6A60
:1003C0001ECF06F01FCF07F0B9EC05F002C01EFFEC
:1003D00003C01FFF0A0E146E156A1ECF06F01FCF52
:1003E00007F014C00BF015C00CF0B9EC05F006C016
:1003F00022FF1ECF14F01FCF15F00A0E0B6E0C6AF1
:1004000014C006F015C007F0B9EC05F002C014F0F6
:1004100003C015F014C023FF300E0F012025736EAA
:1004200072A2FED7300E0F012125736E72A2FED785
:100430002E0E736E72A2FED7300E0F012225736E40
:1004400072A2FED7300E0F012325736E72A2FED763
:10045000E552E7CFD9FF1200D9CFE6FFE1CFD9FFB0
:10046000FE0EDB500F01166F176B16CF17FF166BC2
:10047000FD0EDB501611166F16CF14F017CF15F0C6
:10048000040ED89015321432E804FBE114C016FFB4
:1004900015C017FF146A156AFA0E166E3C0E176E19
:1004A00016CF06F017CF07F085EC03F005C018F063
:1004B00006C019F007C01AF008C01BF018C00AF0F7
:1004C00019C00BF01AC00CF01BC00DF014C005F0E1
:1004D00015C006F016C007F017C008F09AEC03F03C
:1004E00005C018FF06C019FF07C01AFF08C01BFF90
:1004F0000A6A0B6AC00E0C6E400E0D6E18CF05F026
:1005000019CF06F01ACF07F01BCF08F007EC04F064
:1005100005C018FF06C019FF07C01AFF08C01BFF5F
:100520000A6A0B6AC80E0C6E420E0D6E18CF05F0EB
:1005300019CF06F01ACF07F01BCF08F09AEC03F0A2
:100540009EEC04F006C01CFF07C01DFFE80E146EF1
:10055000030E156E1CCF06F01DCF07F014C00BF074
:1005600015C00CF0B9EC05F006C020FF1CCF1EFF33
:100570001DCF1FFFE80E0B6E030E0C6E1ECF06F094
:100580001FCF07F0B9EC05F002C01EFF03C01FFF2C
:10059000640E146E156A1ECF06F01FCF07F014C04C
:1005A0000BF015C00CF0B9EC05F006C021FF640E8D
:1005B0000B6E0C6A1ECF06F01FCF07F0B9EC05F0EA
:1005C00002C01EFF03C01FFF0A0E146E156A1ECF65
:1005D00006F01FCF07F014C00BF015C00CF0B9ECFB
:1005E00005F006C022FF1ECF14F01FCF15F00A0E33
:1005F0000B6E0C6A14C006F015C007F0B9EC05F0DC
:1006000002C014F003C015F014C023FF300E0F0118
:100610002025736E72A2FED7300E0F012125736E56
:1006200072A2FED72E0E736E72A2FED7300E0F018D
:100630002225736E72A2FED7300E0F012325736E32
:1006400072A2FED7E552E7CFD9FF1200BBDDBEDDB7
:10065000C8DDDDDD8DDD02D8FFD71200D9CFE6FF82
:10066000E1CFD9FF020EE126030EDF6E010EDB6A39
:10067000D1DCDFCFE6FFEDEC05F0E552A00EE66E33
:10068000D5DCE552DFCFE6FFEDEC05F0E552E66A9A
:10069000CDDCE552DFCFE6FFEDEC05F0E552640E70
:1006A000E66EC4DCE552DFCFE6FFEDEC05F0E55287
:1006B000010EDB6A0A0EF36E010EDBCFF4FFF3507E
:1006C000F45C13E2010EDB50EA6A000FE96E0F0ED4
:1006D000EA22EF50E66EAADCE552DFCFE6FFEDEC52
:1006E00005F0E552010EDB2AE5D79ADCDFCFE6FF05
:1006F000EDEC05F0E552020EE15C02E2E16AE55242
:0A070000E16EE552E7CFD9FF1200C9
:06070A000F9E08D00F9EB7
:1007100007AE05D0066C071EE86A07220F8E07C0D9
:1007200001F006C000F0136A126A8E0E026E036AB0
:10073000E9EF04F00F6A25EC05F03DEC05F00FB68B
:10074000CDEF04F00FA205D00FB8CDEF04F0D4EF39
:1007500004F00FAA05D00FB0CDEF04F0D4EF04F0F1
:100760000FB002D00FA802D0E0EF04F0036A0D50E2
:100770000824026EE86A03227E0E025EE86A035ACB
:10078000126A136A006A016A0C500702F4CF01F082
:10079000F3CF00F00B500702F3501326F450002261
:1007A000000E01220C500602F3501326F4500022D2
:1007B000000E01220A500702F3501226F4501322B1
:1007C000000E002201220B500602F3501226F450B4
:1007D0001322000E002201220C500502F3501226B3
:1007E000F4501322000E002201220A500602F45097
:1007F0001226000E1322002201220B500502F45093
:100800001226000E132200220122E9EF04F00D7ED1
:100810000F6A25EC05F03DEC05F00FB6CDEF04F0C6
:100820000FA20AD00FAA03D00FBECDEF04F00FA481
:10083000D9EF04F0D6EF04F00FAA05D00FACD9EF32
:1008400004F0D6EF04F00FA00AD00FA808D00FBE16
:1008500004D00FA402D0E2EF04F0E6EF04F0126A35
:10086000036A0D50085C116E10E305C013F006C05A
:1008700000F007C001F008C010F00AC005F00BC07E
:1008800006F00CC007F00F3A09D00AC013F00BC0F5
:1008900000F00CC001F00DC010F0116C0F9E0FBCE9
:1008A0000F8E10C002F00FB015EF05F01A0E116098
:1008B00015EF05F0026A086A0FA408D0056C061E41
:1008C000071E081EE86A0622072208220FAC08D07D
:1008D000136C001E011E021EE86A00220122022281
:1008E000046A115207E00834073206320532043236
:1008F000112EF9D705501326065000220750012269
:100900000850022204C012F00F9E02AE0BD0126CEF
:10091000131E001E011E021EE86A1322002201227D
:1009200002220F8E02A006D0D8800132003213328C
:100930001232102A10C002F0E9EF04F00F6A25EC21
:1009400005F00FB6A8EF04F00FA20ED00FB405D03B
:100950007F0E076EFF0E066E1FD0800E076E066AB2
:100960001BD0076A066A18D00FB0FBD78F0E08603D
:10097000EDD77E0E0864F5D78E0E085C05E0D890A2
:1009800007320632082AF8D70FA406D0066C071ED5
:10099000E86A072207AEE5D712007F0E086EFF0E49
:1009A000076E066E056E12007F0E0FBEFF0E086EFC
:1009B00002D07F0E086E800E076E066A056AF3D7B6
:1009C0000FAE04D0800E086E076AF7D7086A076A70
:1009D000F4D70150001013101210F8E003BEF0D746
:1009E00001BE0CD002500310EBE0D8901236133643
:1009F000003601360206D8A00306F2D70350D4E130
:100A00000228D2E012AE11D07F0E121402E113A020
:100A10000CD0132AE86A0022012207E3D8800132B1
:100A200000321332022A0228BFE00250C9E013C08C
:100A300005F000C006F00134076E0230086E073280
:100A4000089E0FBE088ED3EF04F00736083602E387
:100A50000F840F7E06E10F80086A076A066A056A3E
:100A60001200082803E0D88007321200D89007321D
:100A700002E10F8212000F8612000C360D3602E3DF
:100A80000F8C0F7E06E10F880D6A0C6A0B6A0A6AEA
:100A900012000D2803E0D8800C321200D8900C32DE
:060AA000EAE10F8A1200DA
:0A0AA600060EF66E000EF76E000E4D
:100AB000F86E0F010900F550296F0900F5502A6FF3
:100AC00003E1296701D03DD00900F550246F0900EA
:100AD000F550256F0900F550266F09000900F55003
:100AE000E96E0900F550EA6E090009000900F550A9
:100AF000276F0900F550286F09000900F6CF2BFF7A
:100B0000F7CF2CFFF8CF2DFF24CFF6FF25CFF7FF2F
:100B100026CFF8FF0F01275302E1285307E0090011
:100B2000F550EE6E2707F8E22807F9D72BCFF6FF2E
:100B30002CCFF7FF2DCFF8FF0F012907000E2A5BFE
:040B4000BFD7120009
:0C0B4400FF0EE3501D6EEF0E01D0F30E0B
:100B5000E76EE72EA9EF05F00C0E1C6EE76AE72E94
:100B6000AFEF05F01C2EAEEF05F01D2EA7EF05F040
:020B7000120071
:0E0B7200036A026A100EE76ED8900636073648
:100B8000023603360B50025C0C50035805E30B5041
:0E0B9000025E0C50035A062AE72EF0D7120020
:020B9E00380E0F
:100BA000F36E00EE00F00F0E01D81200EA6002D0E2
:0E0BB000EE6AFCD7F350E9601200EE6AFCD743
:020BBE001EEE29
:100BC00000F02EEE00F0F86A0F9C53EC05F0FBEC01
:0A0BD00005F026EC03F0FBD712003D
:060BDA00FF0EE3501D6E4A
:100BE0001B0E00D001D0200EE76EE72EFED71D2E83
:060BF000FAD700D012004C
:020BF6001200EB
:080BF800484F4C41204D554EC1
:0C0C0000444F484F4C4120504153544198
:00000001FF
