:020000040000FA
:06000000E7EF03F012001F
:020006000000F8
:08000800D9CFE6FFE1CFD9FFDB
:10001000E652DF6A0A0EDF5C07E2140EE66EC0EC01
:1000200003F0E552DF2AF6D7E552E552E7CFD9FFD4
:100030001200D9CFE6FFE1CFD9FFE652DF6ADF6ACF
:100040000A0EDF5C06E28A88DFDF8A98DDDFDF2ABE
:10005000F7D7E552E552E7CFD9FF1200A49E6B8097
:10006000A4AEFED7A49E1200A49E6B84A4AEFED7BD
:10007000A49E1200D9CFE6FFE1CFD9FFA49EFE0EC9
:10008000DB506F6EA4AEFED7A49EE552E7CFD9FF3A
:100090001200A49E6B82A4AEFED7A49E1200D9CFFC
:1000A000E6FFE1CFD9FFE652DF6AA49E6B86A4AEDD
:1000B000FED7A49E6F50DF6EDF5000D0E552E552B0
:1000C000E7CFD9FF1200A49E6B9A6B88A4AEFED72F
:1000D000A49E1200A49E6B8A6B88A4AEFED7A49E39
:1000E00012009E96C5809EA6FED79E9612009E96F2
:1000F000C5849EA6FED79E961200D9CFE6FFE1CF1B
:10010000D9FF9E96FE0EDB50C96E9EA6FED79E9628
:10011000E552E7CFD9FF12009E96C5829EA6FED774
:100120009E961200D9CFE6FFE1CFD9FFE652DF6AF3
:100130009E96C5869EA6FED79E96C950DF6EDF505E
:1001400000D0E552E552E7CFD9FF12009E96C59A3E
:10015000C5889EA6FED79E9612009E96C58AC58823
:100160009EA6FED79E96120040D843D84DD8A8DA56
:100170008A9A82A031D05DDF27D9E8D865D969D8BD
:10018000C80EE66EC0EC03F0E552C80EE66EC0EC99
:1001900003F0E552C80EE66EC0EC03F0E552C80E5F
:1001A000E66EC0EC03F0E5526ED9C80EE66EC0EC08
:1001B00003F0E552C80EE66EC0EC03F0E552C80E3F
:1001C000E66EC0EC03F0E552C80EE66EC0EC03F03C
:1001D000E552A9D977D8CDD7010EE66EC0EC03F071
:1001E000E55282A0FED786EF01F0D38AD38CD38864
:1001F0001200F29EC70E936E8A6A0F01396BD90EF8
:10020000946E3A6B8B6A1200010E766EA00E756EBC
:10021000F29E260E726E900E716E080E706E010EBA
:10022000B06EA00EAF6E260EAC6E900EAB6E080ECA
:10023000B86EA49A9E9A1200729A719E7198AC9AA6
:10024000AB9EAB98728A718E7188AC8AAB8EAB888C
:10025000120074CFF5F10101F56BF85132E071A293
:1002600002D071987188A4AA2BD0F551EA6A000FC8
:10027000E96E010EEA2274CFEFFF0D0E005D01E181
:10028000F86BF551EA6A000FE96E010EEA22EF50B1
:100290000D0813E1020EF75D03E1F86BF529F56F28
:1002A000F70504E1020EF76FF529F56FF75104E148
:1002B000010EF76FF529F56F03D0F529F56FF76B90
:1002C000CCD712000101010EF86FF5C1F6F1F56B04
:1002D0000101F8511AE0F56BF651F55D10E2F551A8
:1002E000EA6A000FE96E010EEA22EF50AD6E280EA9
:1002F000E66EC0EC03F0E5520101F52BEDD7F86B8B
:100300000D0E005D01E12CD8E3D71200D9CFE6FF36
:10031000E1CFD9FF020EE1269EAA05D0AE50DF6ED6
:100320008A78DF50736EA4AA06D0010E74CFDBFF6B
:100330008A78DB50AD6EF0D7020EE15C02E2E16A32
:10034000E552E16EE552E7CFD9FF12000101010E3F
:10035000F86FF76BF56B74CFF5F1F56BF96B120075
:100360004E0EAD6E280EE66EC0EC03F0E5526F0E39
:10037000AD6E280EE66EC0EC03F0E552200EAD6EB9
:10038000280EE66EC0EC03F0E552440EAD6E280E6A
:10039000E66EC0EC03F0E552410EAD6E280EE66E3F
:1003A000C0EC03F0E552540EAD6E280EE66EC0ECC4
:1003B00003F0E552300EAD6E280EE66EC0EC03F091
:1003C000E5520D0EAD6E1200280EE66EC0EC03F085
:1003D000E552440E736EC80EE66EC0EC03F0E552B3
:1003E000C80EE66EC0EC03F0E552C80EE66EC0EC37
:1003F00003F0E5522B0E736E280EE66EC0EC03F090
:10040000E5522B0E736E280EE66EC0EC03F0E5523B
:100410002B0E736EC80EE66EC0EC03F0E552C80EEC
:10042000E66EC0EC03F0E552C80EE66EC0EC03F0D9
:10043000E552C80EE66EC0EC03F0E552C80EE66E5B
:10044000C0EC03F0E5521200410E736E280EE66E0A
:10045000C0EC03F0E552540E736E280EE66EC0EC4D
:1004600003F0E5524E0E736E280EE66EC0EC03F0FC
:10047000E552440E736E280EE66EC0EC03F0E552B2
:100480000D0E736E1200410E736E280EE66EC0ECF8
:1004900003F0E552540E736E280EE66EC0EC03F0C6
:1004A000E552430E736E280EE66EC0EC03F0E55283
:1004B0004E0E736E280EE66EC0EC03F0E5520D0E84
:1004C000736E1200D9CFE6FFE1CFD9FF020EE1260D
:1004D000DE52060EDD6EDF6A080EDF5C08E2010EFA
:1004E000DB28E76E010EE7CFDBFFDF2AF5D7010E31
:1004F000DB6A080EF36E010EDBCFF4FFF350F45C01
:1005000008E2280EE66EC0EC03F0E552010EDB2A8D
:10051000F0D7020EE15C02E2E16AE552E16EE552DB
:10052000E7CFD9FF1200D9CFE6FFE1CFD9FF060E02
:10053000E126030EDF6E010EDB6A020EDB6A030E9C
:10054000DB6A040EDB6A050EDB6A88DDDFCFE6FFBF
:10055000F5EC03F0E552A00EE66E8CDDE552DFCF40
:10056000E6FFF5EC03F0E552E66A84DDE552DFCF05
:10057000E6FFF5EC03F0E552640EE66E7BDDE55236
:10058000DFCFE6FFF5EC03F0E552300E126E12C03D
:100590000CF0F5C107F003EC04F0020E07C0DBFF1E
:1005A000040EDB6A050EDB6A030EDB6A020EDB500B
:1005B000F36E030EDBCFF4FFF350F45C71E2040E34
:1005C000DB50060FE76E040EE7CFDBFF050EDB50B6
:1005D0000D0FE76E050EE7CFDBFF040EDB50E76E75
:1005E000010EE7CFDBFF050EDB50F36E010EDBCF14
:1005F000F4FFF350F45C13E2010EDB50EA6A000FE3
:10060000E96E010EEA22EF50E66E34DDE552DFCFEF
:10061000E6FFF5EC03F0E552010EDB2AE4D7040E09
:10062000DB50090FE76E040EE7CFDBFF050EDB5052
:10063000090FE76E050EE7CFDBFF040EDB50E76E18
:10064000010EE7CFDBFF050EDB50F36E010EDBCFB3
:10065000F4FFF350F45C13E2010EDB50EA6A000F82
:10066000E96E010EEA22EF50E66E04DDE552DFCFBF
:10067000E6FFF5EC03F0E552010EDB2AE4D7040EA9
:10068000DB501A0FE76E040EE7CFDBFF050EDB50E1
:100690001A0FE76E050EE7CFDBFF030EDB2A86D7C6
:1006A000E3DCDFCFE6FFF5EC03F0E552060EE15C9C
:1006B00002E2E16AE552E16EE552E7CFD9FF1200AE
:1006C000800E6D6E280E6C6E6B6A696A270E6E6EF8
:1006D000800EC76E280EC66EC56ACB6A270EC86E1E
:0206E000120006
:0E06E200060EF66E000EF76E000EF86E0F019B
:1006F0000900F550056F0900F550066F03E1056725
:1007000001D03DD00900F550006F0900F550016F90
:100710000900F550026F09000900F550E96E090063
:10072000F550EA6E090009000900F550036F090051
:10073000F550046F09000900F6CF07FFF7CF08FF57
:10074000F8CF09FF00CFF6FF01CFF7FF02CFF8FF88
:100750000F01035302E1045307E00900F550EE6E68
:100760000307F8E20407F9D707CFF6FF08CFF7FF32
:1007700009CFF8FF0F010507000E065BBFD7120077
:10078000FF0EE350116EEF0E01D0F30EE76EE72E71
:10079000C7EF03F00C0E106EE76AE72ECDEF03F003
:0E07A000102ECCEF03F0112EC5EF03F0120067
:0207AE00380E03
:1007B000F36E00EE00F00F0E01D81200EA6002D0D6
:0E07C000EE6AFCD7F350E9601200EE6AFCD737
:0207CE001EEE1D
:1007D00000F02EEE00F0F86A0F9C71EC03F011ECC3
:0A07E00004F0B4EC00F0FBD71200A7
:0607EA00FF0EE350116E4A
:1007F0001B0E00D001D0200EE76EE72EFED7112E83
:06080000FAD700D012003F
:0A080600036A080EE76ED89007366B
:1008100003360C50035C02E3036E072AE72EF7D77A
:020820001200C4
:020822001200C2
:00000001FF
